:020000040800F2
:10000000F011002011030008170100081901000871
:100010001D01000821010008250100080000000062
:10002000000000000000000000000000290100089E
:100030002B01000800000000270300082D01000824
:100040002B0300082B0300082B0300082B030008D8
:100050002B0300082B0300082B0300082B030008C8
:100060002B0300082B0300082B0300082B030008B8
:100070002B0300082B0300082B0300082B030008A8
:100080002B0300082B0300082B0300082B03000898
:100090002B0300082B0300082B0300082B03000888
:1000A0002B0300082B0300082B0300082B03000878
:1000B000FF3C00082B0300082B0300082B0300085B
:1000C0002B0300082B0300082B0300082B03000858
:1000D0002B030008833C00082B0300082B030008B7
:1000E0002B0300082B0300082B030008DFF80CD0BB
:1000F00003F0A0FE0048004701010008F0110020B5
:1001000000BF02F03BFA4FF4E13003F0FFFC01E0E6
:1001100003F085FDFCE7704700BFFEE700BFFEE788
:1001200000BFFEE700BFFEE7704770477047000062
:100130000CB50020019000906C48006840F48030BD
:100140006A49086000BF6948006800F40030009008
:100150000198401C0190009818B90198B0F5A06F63
:10016000F1D16248006800F4003010B10120009025
:1001700001E0002000900098012843D15C4800680D
:1001800040F010005A4908600846006820F003005B
:1001900008600846006840F0020008605348406864
:1001A000524948600846406848600846406840F444
:1001B000806048600846406820F47C10486008462B
:1001C000406840F4E81048600846006840F08070DD
:1001D000086000BF4548006800F000700028F9D0B2
:1001E0004248406820F003004049486008464068A3
:1001F00040F00200486000BF3C48406800F00C003E
:100200000828F9D10CBD10B5FFF792FF10BD10B54D
:100210003648006840F001003449086008464068EC
:10022000344908403149486008460068324908406E
:100230002E4908600846006820F4802008600846BF
:10024000406820F4FE0048604FF41F008860FFF70C
:10025000DAFF4FF000602949086010BD10B5002199
:1002600000200022214B5B6803F00C0121B104291E
:1002700006D0082928D107E0214B224C236027E033
:100280001F4B204C236023E0184B5B6803F4701075
:10029000164B5B6803F48032022303EB904022B9D3
:1002A000194B4343174C23600DE0104B5B6803F47C
:1002B000003323B1144B4343124C236003E0104B33
:1002C0004343104C236003E00D4B0E4C236000BFF2
:1002D00000BF064B5B68C3F303130C4CE15C094B96
:1002E0001B68CB40074C236010BD0000001002408B
:1002F000002002400000FFF8FFFFF6FE08ED00E0DE
:1003000000127A000000002000093D0004000020D7
:100310000648804706480047FEE7FEE7FEE7FEE79F
:10032000FEE7FEE7FEE7FEE7FEE7FEE70F02000856
:10033000ED00000831490143314A1160704770B542
:10034000002100230F22C47804B32D4C246804F448
:10035000E064C4F5E064210AC1F10403CA404478B2
:1003600004FA03F18478144021430901254C0678EE
:10037000A155047804F01F050124AC4005786D11E7
:10038000AD0005F1E025C5F8004109E0047804F06E
:100390001F050124AC401C4D0678761145F8264017
:1003A00070BD1A4A0A400243154B1B1F1A60704762
:1003B00039B1134A121D12680243114B1B1D1A60FA
:1003C00006E00F4A121D126882430D4B1B1D1A6076
:1003D0007047042808D14FF0E021096941F0040179
:1003E0004FF0E022116107E04FF0E021096921F0B0
:1003F00004014FF0E0221161704700000000FA058F
:100400000CED00E000E400E080E100E080FFFF1F71
:1004100010B50446CC48844208D10121042000F0E4
:100420002FFD0021042000F02BFD46E0C748844248
:1004300008D10121082000F023FD0021082000F050
:100440001FFD3AE0C248844208D10121102000F08B
:1004500017FD0021102000F013FD2EE0BD4884425E
:1004600008D10121202000F00BFD0021202000F008
:1004700007FD22E0B848844208D10121402000F065
:10048000FFFC0021402000F0FBFC16E0B348844252
:1004900008D10121802000F0F3FC0021802000F031
:1004A000EFFC0AE0AE48844207D10121801500F03C
:1004B000E7FC0021A01500F0E3FC10BD10B5012100
:1004C000084600F0DDFC0021012000F0D9FC10BD41
:1004D0002DE9F041024600250026002000230024DB
:1004E000002791F803C00CF00F0591F803C00CF041
:1004F000100CBCF1000F03D091F802C04CEA0505C6
:1005000091F800C0BCF1000F31D0146800202BE03E
:100510004FF0010C0CFA00F3B1F800C00CEA03062E
:100520009E4220D183004FF00F0C0CFA03F7BC431E
:1005300005FA03FC4CEA040491F803C0BCF1280F4F
:1005400006D14FF0010C0CFA00FCC2F814C00AE00E
:1005500091F803C0BCF1480F05D14FF0010C0CFA23
:1005600000FCC2F810C0401C0828D1D31460B1F8B8
:1005700000C0BCF1FF0F34DD546800202EE000F114
:10058000080C4FF0010808FA0CF3B1F800C00CEAAF
:1005900003069E4221D183004FF00F0C0CFA03F7A3
:1005A000BC4305FA03FC4CEA040491F803C0BCF117
:1005B000280F05D100F1080C08FA0CF8C2F81480D5
:1005C00091F803C0BCF1480F07D100F1080C4FF0BF
:1005D000010808FA0CF8C2F81080401C0828CED395
:1005E0005460BDE8F0814FF6FF71018002218170F7
:1005F0000421C17070470246002093680B400BB184
:10060000012000E0002070470146886880B27047F2
:1006100002460020D3680B400BB1012000E000200F
:1006200070470146C86880B27047016170474161F8
:1006300070470AB1016100E041617047C1607047D5
:100640004FF480320A4382618161826182698269EA
:10065000704702460020434B18684FF680731840DD
:1006600040EA021008433F4B186070473E49C8619A
:100670007047F0B50A46002300240021002500F051
:100680000046B6F1004F02D1364EF16901E0354E19
:100690007168C0F3034583B200F44016B6F5401FFD
:1006A00008D121F070612F4E766826F070662D4FCC
:1006B0007E6012E000F48016B6F5801F06D1032696
:1006C00006FA05F4A14341F0706106E0460D3601DB
:1006D00003FA06F6B14341F0706122B1460D3601CE
:1006E00003FA06F6314300F00046B6F1004F02D19E
:1006F0001C4EF16101E01B4E7160F0BD30B500226F
:100700008B071C0F0F2303FA04F2164B08338C10CF
:1007100053F824309343134C08348D1044F825309B
:1007200023468C1053F824308C07240F00FA04F46D
:1007300023430C4C08348D1044F8253030BD0A4951
:10074000DC3108607047000000080140000C0140E7
:10075000001001400014014000180140001C01403D
:1007600000200140000001400000204210B5044676
:10077000F748844209D10121480500F08EFB002191
:100780004FF4001000F089FB08E00121880500F01B
:1007900084FB00214FF4800000F07FFB10BD2DE9A9
:1007A000F04385B004460D460026B1460427DFF825
:1007B000A483A6884FF6C0700640684600F0D9FAB8
:1007C000DDF80880E448B8FBF0F01FFA80F946EA4B
:1007D0000906A68020884FF6FE710840208000267A
:1007E000DE49286888420CD828684000B8FBF0F041
:1007F00087B2042F00DA04273E4309F10100208468
:1008000027E0E8884BF6FF71884206D1286800EBA4
:100810004000B8FBF0F087B209E0286800EBC001A7
:1008200001EB0010B8FBF0F087B247F48047C7F344
:100830000B0008B947F0010747F4004006434FF4A6
:10084000967009FB00F04FF47A7190FBF1F0401CB8
:100850002084A683208840F00100208026884FF65F
:10086000F5300640A8886989084306432680A88990
:1008700029890843208105B0BDE8F08341F2883121
:100880000160002181804BF6FF71C1800021018150
:1008900041814FF480418181704721B1028842F04B
:1008A0000102028004E002884FF6FE731A400280C3
:1008B000704721B1828842F40062828004E082881D
:1008C0004FF2FF731A408280704721B1828842F450
:1008D0008052828004E082884EF6FF731A40828044
:1008E000704721B1028842F48072028004E00288DD
:1008F0004FF6FF631A400280704721B1028842F42C
:100900000072028004E002884FF6FF531A40028012
:10091000704721B1028842F48062028004E00288BC
:100920004FF6FF331A40028070470A460021818942
:100930004FF60173194002F0FE031943818170479D
:1009400021B1828942F00102828104E082894FF65E
:10095000FE731A408281704721B1028842F0400242
:10096000028004E002884FF6BF731A40028070478D
:100970001AB183880B43838002E083888B43838092
:100980007047018270470146088AC0B2704712B1B1
:1009900041F0010102E04FF6FE73194001827047F9
:1009A00008B502460020009000920098084400908C
:1009B0000098008808BD21B1028842F400420280FC
:1009C00003E00288C2F30E0202807047B1F5006FA7
:1009D00004D1028842F40062028004E002884FF2EF
:1009E000FF731A4002807047B1F5005F04D102889E
:1009F00042F40052028004E002884DF6FF731A4070
:100A00000280704721B1028842F48052028004E0E3
:100A100002884EF6FF731A4002807047B1F5006FEE
:100A200004D1028842F40062028004E002884FF29E
:100A3000FF731A400280704721B1028842F0200201
:100A4000028004E002884FF6DF731A40028070478C
:100A50000146088B0012704721B1028842F0100253
:100A6000028004E002884FF6EF731A40028070475C
:100A700021B9028842F08002028004E002884FF629
:100A80007F731A4002807047B1F5804F05D0828B8A
:100A90004BF6FF731A40828303E0828B42F480425C
:100AA0008283704770B50246002400250023002091
:100AB000958A138B1B0445EA030626F07F4404EA5B
:100AC00001068E4201D1012000E0002070BD10B56A
:100AD00001460020002300228B8A0A8B120443EA7D
:100AE000020424F07F4010BD0CB502460020002314
:100AF0000193009300920B0F019321F07F41019B22
:100B00001BB1009B1433009303E0090C009B1833C6
:100B10000093009B1B680B400BB1012000E00020FC
:100B20000CBD002221F07F42D3438382704730B551
:100B3000024600200023948801F0E06504EA154392
:100B400021F07F41948A0C4054B14BB1012008E060
:100B50000054004000127A0040420F00A0860100BD
:100B6000002030BD002221F07F42D34383827047B2
:100B7000DF48006840F00100DD4908600846406831
:100B8000DC490840DA49486008460068DA4908400C
:100B9000D74908600846006820F4802008600846AD
:100BA000406820F4FE0048604FF41F0088607047E2
:100BB000CF49096821F48031CD4A11601146096896
:100BC00021F480211160B0F5803F03D0B0F5802F73
:100BD0000ED106E0C649096841F48031C44A11606B
:100BE00007E0C349096841F4A021C14A116000E04F
:100BF00000BF00BF704710B501460022002300204F
:100C00004A11012A02D1BA4C236806E0022A02D115
:100C1000B74C236A01E0B64C636A01F01F0201245D
:100C200094401C400CB1012000E0002010BD38B5FC
:100C3000002000900024002500BF3120FFF7DBFFDB
:100C400005460098401C00900098B0F5A06F01D0B8
:100C5000002DF2D03120FFF7CEFF08B1012400E0D3
:100C60000024204638BD01460020A14A106820F02B
:100C7000F80040EAC10010607047A0490860704762
:100C8000024600209A4B586820F47C1042EA010387
:100C90001843974B5860704798490866704701465B
:100CA0000020934A506820F00300084350607047CA
:100CB0008F48406800F00C007047014600208C4AC5
:100CC000506820F0F0000843506070470146002053
:100CD000874A506820F4E06008435060704701463E
:100CE0000020834A506820F4605040EAC100506000
:100CF000704729B17E4A527A02437D4B5A7204E012
:100D00007B4A527A82437A4B5A7270477B49D83178
:100D10000860704701460020754A506820F4404042
:100D20000843506070470021714A20321170704AA8
:100D300082F82010012802D004280AD104E0012101
:100D40006B4A2032117005E00521694A203211708A
:100D500000E000BF00BF7047694908607047644900
:100D6000096A0143624A1162704765494439086063
:100D7000704730B500210022002400235C4D6D68CF
:100D800005F00C0121B1042905D0082923D105E083
:100D90005C4D056022E05B4D05601FE0544D6D68C1
:100DA00005F47012524D6D6805F48034022505EB90
:100DB00092421CB9544D554305600BE04C4D6D6893
:100DC00005F400351DB1504D5543056002E04D4D11
:100DD0005543056002E04B4D056000BF00BF444D28
:100DE0006D6805F0F0010909484D6B5C0568DD4050
:100DF00045603F4D6D6805F4E061090A434D6B5C49
:100E00004568DD4085603A4D6D6805F46051C90A5A
:100E10003E4D6B5C4568DD40C560354D6D6805F441
:100E20004041890B3A4D6B5CC568B5FBF3F5056134
:100E300030BD29B12E4A526902432D4B5A6104E05C
:100E40002B4A526982432A4B5A61704729B1284A7A
:100E500092690243264B9A6104E0254A92698243D3
:100E6000234B9A61704729B1214AD2690243204B32
:100E7000DA6104E01E4AD26982431D4BDA61704791
:100E800029B11B4AD2680243194BDA6004E0184AC0
:100E9000D2688243164BDA60704729B1144A12694E
:100EA0000243134B1A6104E0114A12698243104B4A
:100EB0001A61704712494039086070470F49C86489
:100EC00070470B49C87170470948406A40F080700C
:100ED00007494862704701460020054A92680A4067
:100EE0000AB1012000E00020704701498872704774
:100EF000001002400000FFF8FFFFF6FE0000424233
:100F00008004424200127A0000093D0014000020D3
:100F10002400002010B50446FE48844208D1012177
:100F2000C014FFF7ADFF0021E014FFF7A9FFC4E0F4
:100F3000B4F1804F08D101210846FFF7AEFF002130
:100F40000120FFF7AAFFB8E0F348844208D101214D
:100F50000220FFF7A2FF00210220FFF79EFFACE076
:100F6000EE48844208D101210420FFF796FF0021BA
:100F70000420FFF792FFA0E0E948844208D1012154
:100F80000820FFF78AFF00210820FFF786FF94E082
:100F9000E448844208D101211020FFF77EFF0021A0
:100FA0001020FFF77AFF88E0DF48844208D1012152
:100FB0002020FFF772FF00212020FFF76EFF7CE06A
:100FC000DA48844208D101214014FFF759FF00217B
:100FD0006014FFF755FF70E0D548844209D1012124
:100FE000C804FFF74DFF00214FF40020FFF748FF32
:100FF00063E0D048844209D101210805FFF740FF92
:1010000000214FF48010FFF73BFF56E0CA488442AE
:1010100009D101214805FFF733FF00214FF40010EB
:10102000FFF72EFF49E0C548844208D10121402046
:10103000FFF733FF00214020FFF72FFF3DE0C048BE
:10104000844208D101218020FFF727FF0021802062
:10105000FFF723FF31E0BB48844208D1012180150E
:10106000FFF71BFF0021A015FFF717FF25E0B6488B
:10107000844209D101210804FFF702FF00214FF447
:101080008030FFF7FDFE18E0B048844209D101210D
:101090004804FFF7F5FE00214FF40030FFF7F0FEA3
:1010A0000BE0AB48844208D101218804FFF7E8FE39
:1010B00000214FF48020FFF7E3FE10BD00220288DC
:1010C000944B98420ED0994B98420BD0B0F1804F80
:1010D00008D0914B984205D0904B984202D0904B4B
:1010E000984204D14FF68F731A404B881A438D4BA8
:1010F000984207D08C4B984204D04FF6FF431A40D9
:10110000CB881A4302808B8883850B880385814BAB
:1011100098420BD0854B984208D08B4B984205D013
:101120008A4B984202D08A4B984201D10B7A0386AF
:1011300001238382704770B5002400220023058CB0
:101140004FF6FE7635400584028C8388048B4FF67B
:101150008F752C40B51E2C400D882C43751E2A40DF
:101160000D892A434D882A436A4DA8420BD06F4D02
:10117000A84208D0744DA84205D0744DA84202D0B0
:10118000734DA84213D14FF6F7752A404D892A4373
:101190004FF6FB752A408D882A434FF6FF652B409A
:1011A0004FF6FF552B408D892B43CD892B438380F0
:1011B0000483CD888586028470BD70B5002400222A
:1011C0000023058C4FF6EF7635400584028C83882A
:1011D000048B48F6FF752C404FF6FF452C400D88D8
:1011E0004FF6FF7606EA05252C434FF6DF752A40B9
:1011F0000D8906EA05152A434D8806EA05152A4396
:10120000444DA84202D0494DA8421DD14FF67F75EA
:101210002A404D894FF6FF7606EA05152A434FF618
:10122000BF752A408D8806EA05152A434FF6FF351B
:101230002B404FF2FF752B408D8906EA85052B4325
:10124000CD8906EA85052B4383800483CD880587F5
:10125000028470BD70B5002400220023058C4FF677
:10126000FF6635400584028C8388848B4FF68F752A
:101270002C404FF6FC752C400D882C434FF6FF5543
:101280002A400D894FF6FF7606EA05252A434D8848
:1012900006EA05252A431F4DA84202D0234DA84245
:1012A0001DD14FF2FF752A404D894FF6FF7606EAB1
:1012B00005252A434FF6FF352A408D8806EA052585
:1012C0002A434EF6FF752B404DF6FF752B408D8956
:1012D00006EA05152B43CD8906EA05152B438380C5
:1012E0008483CD888587028470BD70B50022002379
:1012F0000024058C4EF6FF7635400584038C8488E7
:10130000828B48F6FF752A404FF6FF452A400D882C
:1013100020E00000002C01400004004000080040D4
:10132000000C004000100040001400400034014058
:10133000004C0140005001400054014000180040A2
:10134000001C0040002000400040014000440140DB
:10135000004801404FF6FF7606EA05252A434DF680
:10136000FF752B400D8906EA05352B434D8806EAAB
:1013700005352B43FA4DA84202D0FA4DA84208D1B8
:101380004BF6FF752C408D894FF6FF7606EA8515E2
:101390002C4384808283CD88A0F84050038470BDA4
:1013A000828B4FF2FF331A408283828B4FF6FF739A
:1013B00003EA01231A4382837047F0B50C461546B1
:1013C000002200210026078C4EF6FF7C07EA0C075E
:1013D0000784828B018C4FF6FF7707EA043640F6CC
:1013E000FF473A404FF6FF7707EA05273A434FF6A3
:1013F000FF7707EA03373A43D94FB8420ED0D94FA7
:10140000B8420BD0B0F1804F08D0D74FB84205D0CA
:10141000D64FB84202D0D64FB84206D14DF6FF772C
:10142000394046F48057394305E047F6FF573940C5
:1014300044F48057394382830184F0BD828B4FF698
:10144000F3731A408283828B0A4382837047F0B51C
:101450000C461546002200210026078C4FF6FF6C33
:1014600007EA0C070784828B018C4FF6FF7707EAA7
:1014700004264FF60C773A404FF6FF7707EA03173A
:101480002F433A43B64FB8420ED0B64FB8420BD0B6
:10149000B0F1804F08D0B44FB84205D0B34FB84236
:1014A00002D0B34FB84206D14FF6FF57394046F449
:1014B0008077394305E04FF2FF57394044F4807795
:1014C000394382830184F0BD028B4FF2FF331A400F
:1014D0000283028B4FF6FF7303EA01231A43028350
:1014E0007047F0B50C461546002200210026078CF7
:1014F0004FF6EF7C07EA0C070784028B018C4FF64E
:10150000FF7707EA041640F6FF473A404FF6FF77A9
:1015100007EA03373A434FF6FF7707EA05273A43CE
:101520008F4FB8420ED08F4FB8420BD0B0F1804FE2
:1015300008D08D4FB84205D08C4FB84202D08C4FA6
:10154000B84206D14FF6DF77394046F010073943ED
:1015500005E04FF65F77394044F0100739430283C6
:101560000184F0BD028B4FF6F3731A400283028BA5
:101570000A4302837047F0B50C461546002200214D
:10158000068C4FF6FE773E400684028B018C4FF6A8
:101590000C7632407E1C06EA03162E433243704E10
:1015A000B0420ED06F4EB0420BD0B0F1804F08D099
:1015B0006D4EB04205D06D4EB04202D06C4EB0427E
:1015C00006D14FF6FD76314044F00106314305E087
:1015D0004FF6F576314044F0010631430283018431
:1015E000F0BD70B505460C465D4885420ED05D489D
:1015F00085420BD0B5F1804F08D05B48854205D0BD
:101600005A48854202D05A48854200D100E000BFC6
:10161000208850B92389A28861882846FFF7ABFF4C
:10162000E1882846FFF79EFF25E0208804280AD19C
:101630002389A28861882846FFF753FFE18828465E
:10164000FFF742FF17E0208808280AD12389A288E3
:1016500061882846FFF7FBFEE1882846FFF7EEFE8B
:1016600009E02389A28861882846FFF7A6FEE18861
:101670002846FFF795FE70BD2DE9F04105460C4662
:1016800000260127608808B9022600E00026A0880D
:10169000012801D1022700E001272088A0B9238971
:1016A000A28861882846FFF766FFE1882846FFF791
:1016B00059FF23893A4631462846FFF712FFE18851
:1016C0002846FFF701FF13E02389A2886188284696
:1016D000FFF707FFE1882846FFF7F6FE23893A4621
:1016E00031462846FFF747FFE1882846FFF73AFFD3
:1016F000BDE8F0810A884B881A438B881A43CB884F
:101700001A430B891A434B891A438B891A43A0F851
:10171000442070474FF6FF71818000210180C18015
:101720004180017270470021018041808180C18029
:10173000018141818181C181704700210180418007
:10174000012181800021C180018170470021018039
:1017500041808180C1800181418181817047000089
:10176000002C01400034014000040040000800400B
:10177000000C004021B1028842F00102028004E026
:1017800002884FF6FE731A400280704731B1B0F8FC
:10179000442042F40042A0F8442005E0B0F8442080
:1017A000C2F30E02A0F8442070471AB183890B439C
:1017B000838102E083898B438381704781827047F4
:1017C00041EA0203A0F8483070471AB183890B43FD
:1017D000838102E083898B438381704701894FF6BF
:1017E000F8721140018170470A46002101894FF6C5
:1017F0008F73194011430181704730B504460D467F
:1018000029462046FFF7F0FF208940F0070020819D
:1018100030BD2DE9F04104460D4616461F46602DA9
:1018200006D13B46012231462046FFF75AFE05E02D
:101830003B46012231462046FFF79DFE29462046C1
:10184000FFF7D2FF208940F007002081BDE8F0813A
:1018500030B50C4600210189C9B24FF6FF7505EA83
:101860000325154325432943018130BD2DE9F0416E
:1018700005460E4617469846002443463A463146EA
:101880002846FFF7E5FF2C894FF6F870044044F036
:1018900007044FF68F70044044F070042C81BDE8BB
:1018A000F081F0B504460D4616461F463B463246CB
:1018B00029462046FFF7CCFF208940F48040208154
:1018C000F0BD0185828270470A46002101884FF6EB
:1018D0008F731940114301807047F0B50C461546CF
:1018E0001E460021002200230189028B038C4FF643
:1018F000F877394021434FF6FC473A4040F2011750
:101900003A434FF6DD773B404FF6FF7707EA06177D
:101910002F433B43018102830384F0BD0A4600212B
:10192000018B4FF68F7319401143018370470A46AC
:101930000021018B48F6FF7319404FF6FF7303EA4D
:1019400002231943018370470A460021818B4FF619
:101950008F7319401143818370470A460021818BA0
:1019600048F6FF7319404FF6FF7303EA0223194349
:101970008183704721B1028842F08002028004E036
:1019800002884FF67F731A400280704721B1828827
:1019900042F00402828004E082884FF6FB731A4012
:1019A0008280704721B1828842F00802828004E080
:1019B00082884FF6F7731A408280704721B182887F
:1019C00042F00102828004E082884FF6FE731A40E2
:1019D000828070470A460021018B4FF6F773194049
:1019E0001143018370470A460021018B4FF2FF73B8
:1019F00019404FF6FF7303EA02231943018370472E
:101A00000A460021818B4FF6F773194011438183F9
:101A100070470A460021818B4FF2FF7319404FF641
:101A2000FF7303EA02231943818370470A460021AA
:101A3000018B4FF6FB7319401143018370470A462F
:101A40000021018B4FF6FF3319404FF6FF7303EA75
:101A500002231943018370470A460021818B4FF608
:101A6000FB7319401143818370470A460021818B23
:101A70004FF6FF3319404FF6FF7303EA0223194371
:101A8000818370470A460021018B4FF67F7319400E
:101A90001143018370470A460021018BC1F30E01F7
:101AA0004FF6FF7303EA02231943018370470A4686
:101AB0000021818B4FF67F7319401143818370475A
:101AC0000A460021818BC1F30E014FF6FF7303EA32
:101AD00002231943818370470A460021018C4FF687
:101AE000FD7319401143018470470A460021018C9F
:101AF0004FF6F77319401143018470470A460021DD
:101B0000018C4FF6DF7319404FF6FF7303EA02139F
:101B10001943018470470A460021018C4FF67F73F8
:101B200019404FF6FF7303EA02131943018470470B
:101B30000A460021018C4FF6FF5319404FF6FF7300
:101B400003EA02231943018470470A460021018CED
:101B50004FF2FF7319404FF6FF7303EA0223194354
:101B6000018470470A460021018C4DF6FF7319402D
:101B70004FF6FF7303EA023319430184704730B50F
:101B8000002301248C40A3B2048C9C430484048C65
:101B900002FA01F5ADB22C43048430BD30B5002308
:101BA00004248C40A3B2048C9C430484048C02FA69
:101BB00001F5ADB22C43048430BD70B5034600205E
:101BC00000241846183001258D40ACB21D8CA54369
:101BD0001D8409B1082909D100EB6100056825F0D1
:101BE000700505600568154305600EE00D1FC5F31F
:101BF0004E052844056825F4E045056005684FF664
:101C0000FF7606EA02263543056070BD21B10288E1
:101C100042F00202028004E002884FF6FD731A408F
:101C20000280704721B1028842F00402028004E081
:101C300002884FF6FB731A400280704721B18288F8
:101C400042F08002828004E082884FF67F731A405F
:101C50008280704702884FF6F7731A40028002882C
:101C60000A430280704782884FF68F731A40828041
:101C700082880A438280704702894FF6F8731A40BF
:101C8000028102890A430281704702894FF67F73FD
:101C90001A40028102890A43028170478184704799
:101CA00081857047818670470187704781877047BB
:101CB000A0F84010704702884FF6FF431A40028098
:101CC00002880A43028070470146888E70470146A9
:101CD000088F70470146888F70470146B1F8400071
:101CE00070470146888C70470146088D7047024650
:101CF0000020138A0B400BB1012000E00020704748
:101D0000CA430282704730B50246002000230024F7
:101D1000158A05EA0103958905EA010413B10CB19E
:101D2000012000E0002030BDCA430282704700005D
:101D300010B50446FB48844209D101218803FFF70E
:101D40009FF800214FF48040FFF79AF832E0F64800
:101D5000844209D101214804FFF79FF800214FF484
:101D60000030FFF79AF825E0F048844209D10121BC
:101D70008804FFF792F800214FF48020FFF78DF8D8
:101D800018E0EB48844209D10121C804FFF785F827
:101D900000214FF40020FFF780F80BE0E548844273
:101DA00008D101210805FFF778F800214FF48010D1
:101DB000FFF773F810BD2DE9F04786B005460E46D3
:101DC0000024A24600BFA1460027B08900B100BF91
:101DD0002F462C8A4CF6FF700440F08804432C8276
:101DE000AC894EF6F3100440B088318908437189FC
:101DF00008430443AC81AC8A4FF6FF400440B089ED
:101E00000443AC8201A8FEF7B4FFC648874202D162
:101E1000DDF810A001E0DDF80CA0A88900F4004076
:101E200040B10AEBCA0000EB0A1031684900B0FB70
:101E3000F1F807E00AEBCA0000EB0A1031688900EC
:101E4000B0FBF1F86420B8FBF0F004012009642134
:101E500001FB1089A88900F4004040B1322000EB5A
:101E6000C900B0FBF1F000F00700044308E03220A5
:101E700000EB09106421B0FBF1F000F00F00044307
:101E80002C8106B0BDE8F0874FF4165101600021A7
:101E90008180C18001810C214181002181817047B5
:101EA00010B502460020108A4FF2FF0318400B883D
:101EB0004C8823438C882343CC88234318431082C7
:101EC00010BD0021018041808180C180704721B117
:101ED000828942F40052828104E082894DF6FF73C8
:101EE0001A4082817047F0B5034600240026002581
:101EF000002040F66A17B94200D100BF1846C1F36E
:101F0000421401F01F06012707FA06F5012C01D142
:101F10000C3004E0022C01D1103000E014301AB172
:101F200007682F43076002E00768AF430760F0BD12
:101F30001AB1838A0B43838202E0838A8B438382B4
:101F40007047028A4FF6F0731A400282028A0A43EF
:101F50000282704782894FF2FF731A408281828920
:101F60000A438281704721B1828942F00202828154
:101F700004E082894FF6FD731A4082817047028A1D
:101F80004FF6DF731A400282028A0A4302827047C8
:101F900021B1028A42F48042028204E0028A4BF6B6
:101FA000FF731A4002827047C1F3080282807047B3
:101FB00001468888C0F308007047818941F001011B
:101FC00081817047028BD2B20283028B42EA0122E6
:101FD00002837047028B02F47F420283028B0A4322
:101FE0000283704721B1828A42F02002828204E09B
:101FF000828A4FF6DF731A408282704721B1828A4B
:1020000042F01002828204E0828A4FF6EF731A4097
:102010008282704721B1828A42F00802828204E003
:10202000828A4FF6F7731A408282704721B1828903
:1020300042F40042828103E08289C2F30E0282816F
:10204000704721B1828A42F40062828204E0828A6F
:102050004FF2FF731A4082827047828A4FF6FB73F9
:102060001A408282828A0A438282704721B1828A20
:1020700042F00202828204E0828A4FF6FD731A4027
:102080008282704702460020B1F5007F00D100BF78
:1020900013880B400BB1012000E00020704701F4D1
:1020A0000072B2F5007F00D100BFCA4302807047C2
:1020B00070B50246002400230025002040F66A1671
:1020C000B14200D100BFC1F3421501F01F03012648
:1020D00006FA03F3012D02D19689334006E0022D62
:1020E00002D1168A334001E0968A33400C12012651
:1020F00006FA04F41688344013B10CB1012000E054
:10210000002070BD10B50022002340F66A14A142E1
:1021100000D100BF0A1201249440A3B2DC43048022
:1021200010BD00000038014000440040004800405D
:10213000004C0040005000402DE9F04104460D469F
:10214000002048F20507002120E0012318E015F8DF
:10215000018008EA0308B8F1000F02D04FF001082F
:1021600001E04FF00008C446C6134FF6FF7808EAB6
:102170004000B44500D078404FEA43684FEA186306
:10218000002BE4DC01F101081FFA88F1A142DCDB3D
:1021900010704FEA202882F80180BDE8F08138B540
:1021A00004462578A81EC5B26A4621462846FFF790
:1021B000C3FF9DF80000615D884207D19DF80110C2
:1021C000681C205C814201D1002038BDE520FCE77D
:1021D00070B5044600F09CFB05460DB1284670BD65
:1021E0002146042000F004FB05462078042801D095
:1021F000E4250BE06078112801D0F02506E0A078F6
:10220000332802D1E078432800D0E52515B14620D7
:1022100000F00CFC2846E2E770B506460D4629465C
:10222000304600F08BFB04460CB9204670BD00F030
:10223000AFFA2846FFF7CCFF04460CB9E820F5E7D3
:102240002046F3E72DE9F04F87B00646894615464C
:102250009B46E024307804900498801EC0B203901E
:10226000109800EB4001C1EBC010252101EBC0002C
:1022700080B20290039832183146FFF75DFF0220CA
:10228000069080E03146049800F090FA044654B17C
:1022900029464846FFF7C0FFE72803D1204607B08C
:1022A000BDE8F08F6FE00BF1190000F0BFFB0120DB
:1022B000059060E04FF0000A06E0002005F80A00F3
:1022C0000AF1010000F0FF0ACA45F6DB029801900E
:1022D00000BF2946484600F08BFA0446BDF80400CA
:1022E000253880B20190BDF80400252801DD002CBE
:1022F000EFD1E72C08D129464846FFF78DFFE728A4
:1023000001D12046CBE73CE0E42C0BD129464846DE
:10231000FFF782FF074607B92DE0E82F00D130E034
:102320002046BCE72846FFF73AFF0446BCB92878A8
:10233000042801DD2046B2E795F80180B8F1030FCB
:1023400001D1D220ABE7B8F10F0F01D1D320A6E71E
:10235000B8F1FF0F01D1D42413E020469FE72946AE
:102360004846FFF759FF074607B904E0E82F00D1B8
:1023700007E0204693E70598411EC9B20591002861
:1023800098DC00BF00BF0698411EC9B20691002824
:1023900002DD002C7FF476AF204680E72DE9F04F78
:1023A000864609AC94E8F010DDE910ABDDE90E8952
:1023B0000020BDE8F08F2DE9FF4F8BB089469A468B
:1023C000DDF86CB0DDF878801D9ADDE91F10CDE9ED
:1023D0000528CDE90710DDE919121C98CDE9022B7B
:1023E0000191049018985346009049460D9A0B9815
:1023F000FFF7D4FF0990099828B100F0C9F90998AE
:102400000FB0BDE8F08F0B98172834D010DC1128DE
:102410002DD006DC012840D0022846D0082860D103
:102420002DE0122859D015281DD0162859D12AE0A0
:1024300028280CD006DC1B2833D01C280BD02028E1
:102440004FD146E030280AD047284AD137E00C2443
:102450001A25042749E00E243125042745E00124EC
:102460000125072741E00B24202504273DE01B24FC
:102470002B25232739E005241325042735E00C24D8
:102480001725232731E016242725B9F1030F01D1A1
:10249000042000E02320074627E00124012504272B
:1024A00023E00B24282523271FE00124032509F01E
:1024B000800008B1232000E00720074615E00A2429
:1024C0000C25B9F1000F01D1042000E023200746BC
:1024D0000BE008240425042707E00424262504270C
:1024E00003E0002446251F9F00BF00BF19985044F9
:1024F0005844C01DC0B20A9046460A9806F8010B1F
:102500000B9806F8010B06F8019B0D9806F8010BD5
:102510000D98001206F8010BBAF1000F05DD5246C6
:102520003046189901F054FC56441998002806DDED
:102530003046DDE9192101F04BFC19980644BBF146
:10254000000F05DD5A4630461C9901F041FC5E44FF
:102550000A99891E88B232464146FFF7EDFD2346AF
:10256000009539464046209AFFF76CFE099009987D
:1025700008B100F00DF9099842E7000010B5C82035
:10258000FC49087001210820FEF760FC0121880544
:10259000FEF769FCF848FEF7E9F84FF44060F749A8
:1025A0000880032088701C20C870F548FDF790FF54
:1025B000F448FEF763F9A020F24908814FF48060E7
:1025C0004881F1480860EC48FEF7E9F80121EA4843
:1025D000FEF763F910BD10B50021E748FEF75DF97D
:1025E0001020E649C870E648FDF772FF10BD08B537
:1025F00001210820FEF72AFC4FF44060ADF80000EE
:1026000003208DF8020014208DF803006946DC4891
:10261000FDF75EFF4FF40061D948FEF706F84FF46E
:102620008061D748FEF701F80121D348FEF7C3F9CE
:102630000021D148FEF7BFF94FF40061D048FDF703
:10264000F6FF0A2000F0F2F94FF48061CC48FDF764
:10265000EEFF08BD10B50121C748FEF7ACF90A200E
:1026600000F0E4F90021C448FEF7A5F9FFF786FF62
:10267000002010BD70B50446C44D2146BE48FEF78B
:1026800080F900BF07E02800A5F1010503D1FFF79D
:10269000E1FFF02070BDBE49B748FEF703FA0028FD
:1026A000F1D00020F6E72DE9F04180460E461546B0
:1026B000B64C002708E02000A4F1010404D1FFF784
:1026C000C9FFF020BDE8F0814FF40031AA48FEF7C1
:1026D0000BFA0028EFD10121A748FEF702F9AB4C15
:1026E00007E02000A4F1010403D1FFF7B3FFF020BD
:1026F000E8E7A849A048FEF7D5F90028F1D0002264
:102700009C4801789C48FEF742F9A04C07E0200065
:10271000A4F1010403D1FFF79DFFF020D2E79C490B
:10272000891E9548FEF7BEF90028F0D04046FFF715
:10273000A1FF002716E029788F48FEF722F96D1CCB
:10274000924C07E02000A4F1010403D1FFF782FFBF
:10275000F020B7E78E498848FEF7A4F90028F1D0A9
:10276000781C47B2B742E6DB01218348FEF7C5F883
:1027700001218148FEF7CDF8012000F057F9002033
:10278000A0E710B5002211460220FFF78CFF10BD14
:1027900010B5002211460120FFF785FF10BD10B5CE
:1027A000002211461046FFF77EFF10BD70B50446AB
:1027B0000D462A4621460320FFF775FF70BD70B510
:1027C0000446724D07E02800A5F1010503D1FFF78B
:1027D00041FFF02070BD6F493F316748FEF762F955
:1027E0000028F0D06448FEF7CEF820700020F1E712
:1027F0002DE9F04180460C460025644F002601215A
:102800005D48FEF76EF800BF08E03800A7F1010749
:1028100004D1FFF71FFFF020BDE8F0815D49564865
:10282000FEF740F90028F0D00122524801785248C2
:10283000FEF7ADF8554F72B608E03800A7F1010772
:1028400004D162B6FFF706FFE720E5E75149491CCE
:102850004948FEF727F90028EFD02046FFF7AFFFE1
:1028600010B162B6E620D7E72578042D01DB454597
:1028700006DD62B601214048FEF73FF8E420CBE7D1
:10288000002623E0681EB04207D100213A48FEF737
:1028900040F801213848FEF730F83C4F08E0380096
:1028A000A7F1010704D162B6FFF7D4FEE620B3E733
:1028B00038493F313048FEF7F5F80028EFD02E4870
:1028C000FEF761F8711C6054701CC6B2AE42D9DBD1
:1028D00062B601212848FEF71CF80A2000F0B6F87D
:1028E000002099E770B50446284D21462248FEF79E
:1028F00048F800BF04E02800A5F1010500D170BD33
:1029000023491D48FEF7CEF80028F4D00020F6E752
:1029100010B5002401211848FDF7E3FF3C2000F02A
:1029200077F80020FFF7DEFF044301211248FDF78E
:10293000E4FF032000F07AF8002010BD70B50546D2
:102940000E46002401210C48FDF7CBFFFF20FFF7C6
:10295000C9FF04460749097841F00100FFF7C2FFAB
:1029600004461CB901210448FDF7C7FFFFF717FF14
:1029700070BD000028000020005800402A00002000
:10298000000C014048000020A0860100801A0600CB
:10299000840007000100030008B501210820FEF7AC
:1029A00055FA4FF44060ADF8000010208DF8030098
:1029B00003208DF8020081020D48FDF736FE6946BE
:1029C0000B48FDF785FD08BD0020704700207047CB
:1029D0000146002070470146002070470146002054
:1029E0007047002070470020704770477047000014
:1029F000000C0140072106E000BF0A1EA1F10103FF
:102A000099B2FADC07210200A0F10100F4D170476D
:102A1000462106E000BF0A1EA1F1010399B2FADCCB
:102A200046210200A0F10100F4D1704741F638714F
:102A300007E000BF0A1EA1F1010399B2FADC41F6DA
:102A400038710200A0F10100F3D1704700BF01000E
:102A5000A0F10100FBD17047F0B589B007460C46E4
:102A60001546002623200721CDE90517CDE90704E7
:102A700000200190029003900490034602468021BA
:102A800000900220FFF797FC064616B1304609B0C9
:102A9000F0BDD4F801002860D4F809006860607BBC
:102AA00028720020F3E72DE9F0418AB006460D4672
:102AB00014460027207800F0020008B9142000E036
:102AC0002020804623205421CDE90516CDE90705B5
:102AD00000200190029003900490201D00906288D5
:102AE000217843461620FFF766FC07461FB138469B
:102AF0000AB0BDE8F0812022691C04F1240001F035
:102B000067F90020F4E7F0B589B005460E46144693
:102B1000002723205421CDE90706CDE9051504F14E
:102B200044000D2204F124012023CDE90131CDE937
:102B30000320201D0090628821782820FFF73BFCAD
:102B4000074617B1384609B0F0BD0020FBE7F0B5E5
:102B500089B005460E461446002723205421CDE9AE
:102B60000706CDE90515002001900290039004901E
:102B7000A01C009008B1042000E000200346627809
:102B800021781520FFF717FC074617B1384609B022
:102B9000F0BD0020FBE7F0B589B006460D461446AF
:102BA000002723205421CDE90516CDE90705002093
:102BB0000190029003900490201D0090207800F076
:102BC000010008B1002000E020200346628821783F
:102BD0000820FFF7F0FB074617B1384609B0F0BDF3
:102BE0002022691C04F1240001F0F2F80020F5E72E
:102BF0002DE9F04705460F464FF00008C14646262E
:102C00000024300A2855641C2E55641C03202855C6
:102C1000641C02202855641C28194022FB4901F03D
:102C2000D7F840343C800020BDE8F0872DE9F0471C
:102C300005460E464FF00008C14640F20627002424
:102C4000380A2855641C2F55641C03202855641C21
:102C500001202855641C2819E201ED4901F0B8F85B
:102C600004F5007434800020BDE8F087F0B58DB025
:102C700006460F46002400200C90002509900A907B
:102C80000B90E448FFF7A4FA044614B120460DB0B7
:102C9000F0BDE1482321E14A0723CDE90532CDE922
:102CA0000710002001900290039004900346152223
:102CB000014600900220FFF77EFB04460CB120463F
:102CC000E5E7D548C078552801D08E20DFE709AA6E
:102CD000D149D248FFF7C0FE04460CB12046D6E7E2
:102CE000092209A9CE4801F097F880B10020CD490A
:102CF0000870CD490870CD490870C948099901602C
:102D00000A9941609DF82C1001728920BFE7C648DE
:102D1000007808B98B20BAE7C448007808B98C203D
:102D2000B5E74FF40072BA49C14801F051F84022AA
:102D3000B649C04801F04CF80CAABD494FF41070D8
:102D4000FFF7FAF99DF830009DF8311000EB0120F3
:102D500085B2B1482321B14A0723CDE90532CDE937
:102D600007100020019002900390049003462A4629
:102D7000012100901720FFF71EFB04460CB12046EE
:102D800085E7002083E7F0B58DB006460F460024A6
:102D900000200C90002509900A900B909D48FFF7A9
:102DA00017FA044614B120460DB0F0BD9A4823210D
:102DB0009A4A0723CDE90532CDE90710002001909A
:102DC00002900390049003461522014600900220D1
:102DD000FFF7F1FA04460CB12046E5E78E4800798A
:102DE000552801D08D20DFE709AA8B498B48FFF7D2
:102DF00033FE04460CB12046D6E7092209A98848CB
:102E000001F00AF880B100208649087086490870F0
:102E1000864908708248099901600A9941609DF8C5
:102E20002C1001728920BFE77E48007808B98A20FB
:102E3000BAE78148007808B98A20B5E70CAA7F492B
:102E40005820FFF779F99DF830009DF8311000EB1C
:102E5000012085B270482321704A0723CDE905324D
:102E6000CDE90710002001900290039004900346E2
:102E70002A46014600901720FFF79DFA04460CB140
:102E8000204691E700208FE72DE9F04389B0054601
:102E90008846002400260427A1465E48FFF798F9DB
:102EA00004461CB1204609B0BDE8F0835C4A5A498B
:102EB0005A48FFF7D1FD04460CB12046F3E75648C7
:102EC0002321564A0723CDE90532CDE9071000201A
:102ED0000190029003900490034615220146009051
:102EE0000220FFF768FA04460CB12046DBE74A48A7
:102EF0000079552801D18120D5E74748C078552869
:102F000001D04FF0010944482321444A0723CDE969
:102F10000532CDE907100020019002900390049043
:102F200003460422014600900220FFF744FA0446BB
:102F30000CB12046B7E73848C078AA2802D03648F6
:102F4000C07820B9B9F1000F01D08520ABE7002689
:102F50001BE031482321314A0723CDE90532CDE971
:102F6000071000200190029003900490E819F200ED
:102F70002023812100901220FFF71DFA04460CB196
:102F8000204690E72037701CC6B2022EE1DBA8F87D
:102F900000700120254908704022291D1B4800F0BF
:102FA00017FF00207FE72DE9F0478AB006468846E4
:102FB000002400250427A1461648FFF709F9044616
:102FC0001CB120460AB0BDE8F087154A12491348E3
:102FD000FFF742FD04460CB12046F3E70E482321DB
:102FE0000E4A0723CDE90532CDE9071000200190F4
:102FF000029003900490034615220146009002209F
:10300000FFF7D9F90446DCB12046DBE77003002066
:10301000B00300202E000020AC000020580000204B
:103020000F03002032000020350000203400002073
:10303000CF000020CF020020330000201803002022
:10304000FA480079552801D18120BBE7F748C078BC
:10305000552801D04FF00109F4482321F44A0723F1
:10306000CDE90532CDE907100020019002900390D0
:10307000049003460246802100900220FFF79BF94E
:1030800004460CB120469DE7EA48E84915310A6834
:1030900002604A68426089688160E4482321E44A0A
:1030A0000723CDE90532CDE90710002001900290F9
:1030B0000390049003460822802100900220FFF72D
:1030C0007AF904460CB120467CE71422D749491C02
:1030D000D8480C3000F07CFE00252AE06800401C37
:1030E000D449085C4FEA601AB9F1000F05D0B9F174
:1030F000000F1BD0BAF1000F18D1CC482321CC4AC5
:103100000723CDE90532CDE9071000200190029098
:1031100003900490F019EA002023822100901220ED
:10312000FFF749F904460CB120464BE72037681CED
:10313000C5B2102DD2DBA8F800700120BE4908707E
:103140004202311DBD4800F043FE00203AE72DE960
:10315000F04389B00746884600240026A14604258E
:10316000B748FFF735F804461CB1204609B0BDE862
:10317000F083B44AAD49AE48FFF76EFC04460CB18B
:103180002046F3E7A9482321A94A0723CDE90532C0
:10319000CDE90710002001900290039004900346AF
:1031A0001522014600900220FFF705F904460CB1F4
:1031B0002046DBE79D480079552801D08420D5E7DB
:1031C00000261BE099482321994A0723CDE90532BF
:1031D000CDE9071000200190029003900490781927
:1031E0000423321D002100901220FFF7E4F804466A
:1031F0000CB12046BAE72D1D701CC6B2042EE1DBCF
:103200004FF0080989482321894A0723CDE905326F
:10321000CDE90710002001900290039004907819E6
:1032200020234A46802100901220FFF7C4F804466C
:103230000CB120469AE720354FF0100900261CE01B
:103240007A4823217A4A0723CDE90532CDE90710D0
:1032500000200190029003900490781906EB090277
:103260000423002100901220FFF7A5F804460CB1BA
:1032700020467BE72D1D701CC6B2052EE0DBA8F8AA
:1032800000504422391D704800F0A2FD01206F4912
:10329000087000206AE72DE9F04389B005468946A9
:1032A000002600274FF0460800244FEA1820285532
:1032B000641C05F80480641C00202855641C02204E
:1032C0002855641C5E48FEF783FF06461EB1304653
:1032D00009B0BDE8F08355482321554A0723CDE9BD
:1032E0000532CDE907100020019002900390049070
:1032F00003461522014600900220FFF75CF80646BF
:103300000EB13046E4E749480079552801D18120C3
:10331000DEE74648C078552801D18220D8E74348E7
:103320002321434A0723CDE90532CDE907100020C8
:1033300001900290039004900346042201460090FD
:103340000220FFF738F806460EB13046C0E737488E
:10335000C078002843D0552802D0AA2865D100BFE4
:1033600032482321324A0723CDE90532CDE907103F
:1033700000200190029003900490034602468121B0
:1033800000900220FFF717F806460EB130469FE77F
:10339000281920222549491C00F01AFD2034234811
:1033A0002321234A0723CDE90532CDE90710002068
:1033B000019002900390049003460822812100901E
:1033C0000220FEF7F8FF06460EB1304680E72819C6
:1033D00020221649491C00F0FBFC203445E0281946
:1033E000FF22042100F006FD241D2819FF220421DC
:1033F00000F000FD241D022732E00C4823210C4A76
:103400000723CDE90532CDE9071000200190029095
:103410000390049003463A46012100900220FEF7F3
:10342000CAFF0646A6B1304652E71CE0AC000020B9
:1034300058000020D005002035000020B0030020F7
:103440002E0000200F03002028030020320000205F
:103450002819FE49D1F801100160241D781CC7B25B
:10346000102FCADB00BF832032E700BFA9F800405D
:1034700000202DE72DE9F04F89B005468946002749
:10348000002640F2062A00244FEA1A202855641C20
:1034900005F804A0641C00202855641C0120285550
:1034A000641CEB48FEF794FE07461FB1384609B08E
:1034B000BDE8F08FE5482321E64A0723CDE9053230
:1034C000CDE907100020019002900390049003467C
:1034D0001522014600900220FEF76DFF07460FB14E
:1034E0003846E4E7D9480079552801D18120DEE744
:1034F000D648C078552801D18220D8E7D348232167
:10350000D44A0723CDE90532CDE907100020019008
:10351000029003900490034602468021009002200E
:10352000FEF749FF07460FB13846C0E7CA49C7480A
:10353000153002680A6042684A6080688860C34843
:103540002321C44A0723CDE90532CDE90710002025
:10355000019002900390049003460822802100907D
:103560000220FEF728FF07460FB138469FE71422D6
:10357000B649491CB8480C3000F02AFC00264BE044
:10358000B54810F816004FEAD01BB34810F81600E3
:10359000C0F38018BBF1000F08D0B8F1000F05D0C0
:1035A0002819FF22202100F025FC32E0BBF1000F9A
:1035B00021D1B8F1000F1ED1A4482321A54A072329
:1035C000CDE90532CDE9071000200190029003906B
:1035D0000490F2000346822100900220FEF7EBFEE9
:1035E00007460FB1384662E7281920229749491C3F
:1035F00000F0EEFB0DE0B8F1000F05D02819FF2216
:10360000202100F0F7FB04E02819FF22202100F020
:10361000F1FB2034701CC6B2102EB1DBA9F80040BB
:10362000002044E72DE9F0418AB005460F46002608
:10363000B046002400202855641C5E202855641CD8
:1036400000202855641C2855641C8148FEF7C0FDE5
:1036500006461EB130460AB0BDE8F0817B48232102
:103660007C4A0723CDE90532CDE9071000200190FF
:10367000029003900490034642468021009002206D
:10368000FEF799FE06460EB13046E4E773486F49EF
:10369000D1F8011001606D49D1F809204260497BE1
:1036A0000172281920226949491C00F091FB20343D
:1036B0004FF0080865482321664A0723CDE9053203
:1036C000CDE907100020019002900390049003467A
:1036D0004246802100900220FEF76DFE06460EB1A4
:1036E0003046B8E7281920225849491C00F070FBE1
:1036F00020344FF0100855482321564A0723CDE9BE
:103700000532CDE90710002001900290039004904B
:1037100003464246014600900220FEF74CFE064654
:103720000EB1304697E728194849D1F801100160D9
:10373000241D4FF0110845482321464A0723CDE9AF
:103740000532CDE90710002001900290039004900B
:1037500003464246014600900220FEF72CFE064634
:103760000EB1304677E728193849D1F801100160C9
:10377000241D4FF0120835482321364A0723CDE98E
:103780000532CDE9071000200190029003900490CB
:1037900003464246014600900220FEF70CFE064614
:1037A0000EB1304657E728192849D1F801100160B9
:1037B000241D4FF0130825482321264A0723CDE96D
:1037C0000532CDE90710002001900290039004908B
:1037D00003464246014600900220FEF7ECFD0646F5
:1037E0000EB1304637E728191849D1F801100160A9
:1037F000241D4FF0140815482321164A0723CDE94C
:103800000532CDE90710002001900290039004904A
:1038100003464246014600900220FEF7CCFD0646D4
:103820000EB1304617E728190849D1F80110016098
:10383000241D4FF0150805482321064A0723CDE92A
:103840000532CDE907100020019009E0AC0000200E
:103850002E00002058000020B00500200F0300209B
:1038600002900390049003464246014600900220D5
:10387000FEF7A1FD06460EB13046ECE628197F4959
:10388000D1F801100160241D5822291D7C4800F048
:103890009FFA01207B4908703C800020DBE62DE97F
:1038A000F04706460C4691461D464FF0000800279B
:1038B000B07800283FD1F07820B1012808D0022844
:1038C00012D10BE029462046FFF7ACFE80460EE001
:1038D00029462046FFF7CEFD804608E029462046CF
:1038E000FFF7D9FC804602E04FF0860800BF00BF1A
:1038F000B8F1000F10D0306820600720607084F8A5
:1039000004800521204600F02EFA0746380A60712F
:10391000A77107202880AFE02988204600F023FA0D
:103920000746380A298860542888401C275428886C
:10393000801C2880A0E0B07801282FD1F07820B139
:10394000012808D0022812D10BE029463046FFF7A3
:10395000FEFB80460EE029463046FFF724FB8046FA
:1039600008E029463046FFF78FFA804602E04FF024
:10397000860800BF00BF306820600020207007204C
:10398000607084F804800521204600F0ECF90746B9
:10399000380A6071A771072028806DE0B07802288E
:1039A0002AD1F07820B1012808D002280DD106E0F4
:1039B00029463046FFF7E7F9804609E000BF29466F
:1039C0003046FFF753F9804602E04FF0860800BF0B
:1039D00000BF30682060002020700720607084F8ED
:1039E00004800521204600F0BEF90746380A6071C0
:1039F000A771072028803FE0B07803283AD1F078FB
:103A000020B1012803D002280DD106E00EE029469E
:103A10002046FFF70BF9804608E029462046FFF7CD
:103A2000E7F8804602E04FF0860800BF00BFB8F11B
:103A3000000F10D0306820600720607084F8048088
:103A40000521204600F08FF90746380A6071A771FA
:103A50000720288010E02988204600F084F90746D6
:103A6000380A298860542888401C27542888801CDC
:103A7000288001E000202880BDE8F087AC0000200D
:103A800018030020330000201FB500240121084640
:103A9000FDF7E9F9A248006844F62061B0FBF1F0B7
:103AA000401E84B2C720ADF80800ADF804400020E5
:103AB000ADF80A00ADF8060001A94FF08040FDF70F
:103AC000FDFA01218807FDF755FF4FF4C060FCF7B0
:103AD00031FC1C208DF8000001208DF8010003202E
:103AE0008DF8020001208DF803006846FCF727FCE2
:103AF00001218807FEF718F9012211469007FDF70A
:103B000054FE01218807FDF735FE1FBD10B586B0B4
:103B10000446012144F20400FDF798F94FF40070C7
:103B2000ADF8100003208DF8120018208DF8130056
:103B300004A97C48FCF7CCFC4FF48060ADF8100081
:103B400003208DF8120048208DF8130004A9754851
:103B5000FCF7BEFC00940020ADF80800ADF80600AC
:103B6000ADF804000C20ADF80A000020ADF80C0000
:103B700069466D48FEF71FF9012240F225516A4857
:103B8000FEF7B1F901216848FEF7A1F94FF4C060D2
:103B9000FCF7D0FB25208DF8140000208DF81500CF
:103BA0008DF8160001208DF8170005A8FCF7C7FB5B
:103BB000FFF76AFF06B010BD70B505460E4600243B
:103BC0000CE000BF5848008800F080000028F9D0C1
:103BD000295D5548FEF7E8F9601C84B2B442F0DB79
:103BE00070BD2DE9F04105460C4600260027022C49
:103BF00002DC0020BDE8F081601E295CA01E285C6C
:103C000001EB002086B2A01E81B2284600F0ABF87E
:103C10000746BE4201D10120ECE70020EAE708B5E3
:103C20004248007820B1012803D0022826D10BE0B9
:103C300025E03F4800683F490968401A282802D318
:103C400002203A4908701AE0002000903A480188A2
:103C50003A48FFF7C6FF58B16B46374802883849E3
:103C60003648FFF71CFEBDF800103548FFF7A4FFEB
:103C70000020314908802D49087000E000BF00BFD6
:103C800008BD10B540F225512748FEF711FA01286A
:103C90001DD12548FEF78CF92849274A12888854F7
:103CA00025480088401C2449088008460088B0F553
:103CB000806F01DB002008801D4800681D490860F6
:103CC0001A480078D0B901201849087016E040F26F
:103CD00026611548FEF7ECF9012805D140F226616E
:103CE0001148FEF70FFA09E00F480088C0F3C00042
:103CF00020B10D48FEF75CF91249087010BD10B5EF
:103D000001218807FDF7FFFF40B101218807FEF779
:103D10000BF8074800680A300549086010BD00002C
:103D20000000002000080140003801403C00002055
:103D300040000020440000203A000020F00900204C
:103D4000F00500203800002010B50246002004E0F5
:103D500012F8013B43401A4CE05C0B00A1F1010456
:103D6000A1B2F5D110BDF0B502460B46FF24FF25E8
:103D7000002609E0905D80EA04011248405C80EA78
:103D800005041148455C761C1800A3F10107BBB27D
:103D9000F0D145EA0420F0BD30B503460C464FF0A3
:103DA000FF32002108E0585C5040C0B2074D55F882
:103DB000200080EA1222491CA142F4D3D04330BD36
:103DC000783E0008783F00087840000878410008F5
:103DD00040EA01039B0703D009E008C9121F08C08D
:103DE000042AFAD203E011F8013B00F8013B521E0D
:103DF000F9D27047D2B201E000F8012B491EFBD284
:103E000070470022F6E710B513460A4604461946E5
:103E1000FFF7F0FF204610BD30B5044600200346F2
:103E200000E05B1C934203D2E05CCD5C401BF8D009
:103E300030BD0000064C074D06E0E06840F001038D
:103E400094E8070098471034AC42F6D3FCF752F9D7
:103E5000784500089845000802E008C8121F08C10C
:103E6000002AFAD170477047002001E001C1121FFB
:103E7000002AFBD170470000005EBCE2613FDD8399
:103E8000C29C7E20A3FD1F419DC3217FFCA2401E3A
:103E90005F01E3BD3E6082DC237D9FC1421CFEA02A
:103EA000E1BF5D0380DE3C62BEE0025CDF81633D1A
:103EB0007C22C09E1D43A1FF4618FAA427799BC50A
:103EC00084DA3866E5BB5907DB856739BAE40658FA
:103ED0001947A5FB7826C49A653BD987045AB8E6EA
:103EE000A7F91B45C6987A24F8A6441A99C7257BDA
:103EF0003A6486D85B05E7B98CD2306EEDB3510FCA
:103F00004E10F2AC2F7193CD114FADF3702ECC92B9
:103F1000D38D6F31B2EC0E50AFF1134DCE90722CA9
:103F20006D33D18F0C52B0EE326C8ED0530DEFB199
:103F3000F0AE4C1291CF2D73CA947628ABF5174989
:103F40000856B4EA6937D58B5709EBB536688AD479
:103F500095CB2977F4AA4816E9B7550B88D6346A69
:103F60002B7597C94A14F6A8742AC896154BA9F759
:103F7000B6E80A54D7896B3500C1814001C0804141
:103F800001C0804100C1814001C0804100C1814029
:103F900000C1814001C0804101C0804100C1814019
:103FA00000C1814001C0804100C1814001C0804109
:103FB00001C0804100C1814001C0804100C18140F9
:103FC00000C1814001C0804100C1814001C08041E9
:103FD00001C0804100C1814000C1814001C08041D9
:103FE00001C0804100C1814001C0804100C18140C9
:103FF00000C1814001C0804101C0804100C18140B9
:1040000000C1814001C0804100C1814001C08041A8
:1040100001C0804100C1814000C1814001C0804198
:1040200001C0804100C1814001C0804100C1814088
:1040300000C1814001C0804100C1814001C0804178
:1040400001C0804100C1814001C0804100C1814068
:1040500000C1814001C0804101C0804100C1814058
:1040600000C1814001C0804100C1814001C0804148
:1040700001C0804100C1814000C0C101C30302C230
:10408000C60607C705C5C404CC0C0DCD0FCFCE0E98
:104090000ACACB0BC90908C8D81819D91BDBDA1A08
:1040A0001EDEDF1FDD1D1CDC14D4D515D71716D678
:1040B000D21213D311D1D010F03031F133F3F232E8
:1040C00036F6F737F53534F43CFCFD3DFF3F3EFE58
:1040D000FA3A3BFB39F9F83828E8E929EB2B2AEAC8
:1040E000EE2E2FEF2DEDEC2CE42425E527E7E62638
:1040F00022E2E323E12120E0A06061A163A3A262A8
:1041000066A6A767A56564A46CACAD6DAF6F6EAE17
:10411000AA6A6BAB69A9A86878B8B979BB7B7ABA87
:10412000BE7E7FBF7DBDBC7CB47475B577B7B676F7
:1041300072B2B373B17170B0509091519353529267
:1041400096565797559594549C5C5D9D5F9F9E5ED7
:104150005A9A9B5B99595898884849894B8B8A4A47
:104160004E8E8F4F8D4D4C8C4484854587474686B7
:1041700082424383418180400000000096300777EF
:104180002C610EEEBA51099919C46D078FF46A704B
:1041900035A563E9A395649E3288DB0EA4B8DC796B
:1041A0001EE9D5E088D9D2972B4CB609BD7CB17EEB
:1041B000072DB8E7911DBF906410B71DF220B06ABB
:1041C0004871B9F3DE41BE847DD4DA1AEBE4DD6DCB
:1041D00051B5D4F4C785D38356986C13C0A86B64CB
:1041E0007AF962FDECC9658A4F5C0114D96C0663EB
:1041F000633D0FFAF50D088DC8206E3B5E10694CCB
:10420000E44160D5727167A2D1E4033C47D4044B0A
:10421000FD850DD26BB50AA5FAA8B5356C98B242EA
:10422000D6C9BBDB40F9BCACE36CD832755CDF456A
:10423000CF0DD6DC593DD1ABAC30D9263A00DE519A
:104240008051D7C81661D0BFB5F4B42123C4B3568A
:104250009995BACF0FA5BDB89EB802280888055F0A
:10426000B2D90CC624E90BB1877C6F2F114C68586A
:10427000AB1D61C13D2D66B69041DC760671DB0158
:10428000BC20D2982A10D5EF8985B1711FB5B6062A
:10429000A5E4BF9F33D4B8E8A2C9077834F9000F6A
:1042A0008EA8099618980EE1BB0D6A7F2D3D6D080A
:1042B000976C6491015C63E6F4516B6B62616C1CFA
:1042C000D83065854E0062F2ED95066C7BA5011B2A
:1042D000C1F4088257C40FF5C6D9B06550E9B712CA
:1042E000EAB8BE8B7C88B9FCDF1DDD62492DDA158A
:1042F000F37CD38C654CD4FB5861B24DCE51B53AAA
:104300007400BCA3E230BBD441A5DF4AD795D83DA9
:104310006DC4D1A4FBF4D6D36AE96943FCD96E34E9
:10432000468867ADD0B860DA732D0444E51D0333C9
:104330005F4C0AAAC97C0DDD3C710550AA410227D9
:1043400010100BBE86200CC925B56857B3856F20A9
:1043500009D466B99FE461CE0EF9DE5E98C9D92909
:104360002298D0B0B4A8D7C7173DB359810DB42E49
:104370003B5CBDB7AD6CBAC02083B8EDB6B3BF9A95
:104380000CE2B6039AD2B1743947D5EAAF77D29D21
:104390001526DB048316DC73120B63E3843B649401
:1043A0003E6A6D0DA85A6A7A0BCF0EE49DFF099301
:1043B00027AE000AB19E077D44930FF0D2A3088771
:1043C00068F2011EFEC206695D5762F7CB67658021
:1043D00071366C19E7066B6E761BD4FEE02BD38921
:1043E0005A7ADA10CC4ADD676FDFB9F9F9EFBE8E81
:1043F00043BEB717D58EB060E8A3D6D67E93D1A1C1
:10440000C4C2D83852F2DF4FF167BBD16757BCA6A0
:10441000DD06B53F4B36B248DA2B0DD84C1B0AAF40
:10442000F64A0336607A0441C3EF60DF55DF67A8C0
:10443000EF8E6E3179BE69468CB361CB1A8366BC50
:10444000A0D26F2536E2685295770CCC03470BBBA0
:10445000B91602222F260555BE3BBAC5280BBDB2A0
:10446000925AB42B046AB35CA7FFD7C231CFD0B540
:104470008B9ED92C1DAEDE5BB0C2649B26F263EC32
:104480009CA36A750A936D02A906099C3F360EEB40
:104490008567077213570005824ABF95147AB8E200
:1044A000AE2BB17B381BB60C9B8ED2920DBED5E5E0
:1044B000B7EFDC7C21DFDB0BD4D2D38642E2D4F130
:1044C000F8B3DD686E83DA1FCD16BE815B26B9F6C0
:1044D000E177B06F7747B718E65A0888706A0FFF20
:1044E000CA3B06665C0B0111FF9E658F69AE62F8E0
:1044F000D3FF6B6145CF6C1678E20AA0EED20DD7E0
:104500005483044EC2B30339612667A7F71660D0FF
:104510004D476949DB776E3E4A6AD1AEDC5AD6D93F
:10452000660BDF40F03BD83753AEBCA9C59EBBDE5F
:104530007FCFB247E9FFB5301CF2BDBD8AC2BACA0F
:104540003093B353A6A3B4240536D0BA9306D7CD7F
:104550002957DE54BF67D9232E7A66B3B84A61C49F
:10456000021B685D942B6F2A37BE0BB4A18E0CC35F
:104570001BDF055A8DEF022D984500080000002032
:1045800048000000583E0008E045000848000020B0
:10459000A8110000683E000800A24A0400000000C4
:1045A00000000000010203040607080900000000E3
:1045B00001020304010203040607080902040608B5
:1045C00000000000000000000000000000000000EB
:1045D00000000000000000000000000000000000DB
:04000005080000ED02
:00000001FF
